:020000040000FA
:1000000088E4FF1F4D06000055060000570600005B
:10001000590600005B0600005D06000000000000BD
:100020000000000000000000000000005F0600006B
:10003000610600000000000063060000A129000026
:1000400067060000670600006706000067060000FC
:1000500067060000670600006706000067060000EC
:100060006706000067060000912200006706000096
:100070003F210000670600006706000067060000D9
:10008000F50E000067060000FF0E00006706000086
:10009000090F0000670600009728000067060000AF
:1000A000670600006706000067060000670600009C
:1000B0006706000067060000371C0000411C0000B6
:1000C0004B1C0000551C000067060000670600007E
:1000D000670600006706000067060000670600006C
:1000E0008B2B0000B5290000AF2B0000E52B000092
:1000F0001B2C000067060000670600006706000072
:10010000670600006706000067060000670600003B
:10011000670600006706000067060000670600002B
:10012000670600006706000067060000670600001B
:10013000670600006706000067060000670600000B
:10040000FFFFFFFFFFFFFFFFFFFFFFFFFEFFFFFFFD
:10041000DFF80CD002F040FC004800473F29000004
:1004200088E4FF1F4CF220507F49C8814DF6281008
:10043000C8814FF4E97008804FF480307B494864EC
:1004400000207B4908707B490873242048709A205B
:1004500008700846C07800F01F00C87003200871BB
:100460000020487100BF7348807910F0020FFAD065
:1004700000BF7048807900F00C000828F9D10320F3
:100480006C4908714020487100BF6A48807910F0BB
:10049000200FFAD000BF6748807910F0400FFAD0E3
:1004A0001A206449087000BF6248807900F00C008F
:1004B0000C28F9D100BF5F48807910F0400FFAD0C6
:1004C00070475C4A127812F0C00F66D1594A5279CF
:1004D00012F0400F51D1574A127812F0040F18D180
:1004E000544A127B12F0010F01D1534801E04FF43E
:1004F0000040504A1278C2F3C20301229A40D1B29E
:10050000B0FBF1F04B4A527812F0300F03D04009A3
:1005100001E04FF40040474AD27802F0E00212F0C6
:100520001F0F28D15211082A25D2DFE802F0040853
:100530000C1014181C2000EB8002D0011CE000EB12
:100540008002100218E0C0EB0012D00114E000EBB2
:100550008002500210E04FF4377250430CE04FF429
:10056000B762504308E040F69502504304E040F67D
:100570007132504300E000BF38E02E4A127902F099
:100580001F02511C2C4AB2FBF1F02A4A527902F0A8
:100590001F0202F11801484328E0264A127802F0AF
:1005A000C002402A11D1234A527812F0010F02D121
:1005B0004FF400401AE01F4A127AC2F342030122AC
:1005C0009A401E4BB3FBF2F010E01A4A127802F088
:1005D000C002802A09D1174A127B12F0010F01D103
:1005E000154803E04FF4004000E070470F4A526C9A
:1005F000012303EB1272B0FBF2F2114B1A600B4AAB
:10060000526CC2F30362521CB0FBF2F20D4B1A6043
:10061000064A526CC2F30342521CB0FBF2F20A4B80
:100620001A6000BFE1E700000020054000800440A0
:10063000005006400040064000127A0000093D00CC
:1006400000E0FF1F04E0FF1F08E0FF1F064880478F
:1006500006480047FEE7FEE7FEE7FEE7FEE7FEE7A7
:10066000FEE7FEE7FEE7FEE72504000011040000B8
:100670000146FC4850F82100007CC0F30210FA4A01
:1006800052F82000704730B503460C46F54850F844
:100690002300007C10F0800F0AD000BF1846FFF73F
:1006A000E7FFF04951F82310097D8842F6D907E0A9
:1006B00000BFEC4850F82300007910F0800FF8D00C
:1006C000E84951F82310CC71C4F3002555B1E54831
:1006D00050F82300807940F04000E24951F823109F
:1006E000887109E0DF4850F82300807920F040004D
:1006F000DC4951F82310887130BD30B504460D46F1
:10070000A1B2DA480078FFF7BEFF204630BD10B531
:1007100002460023D34850F82200007910F0200F41
:100720000FD0D04850F822008079C3091802088001
:100730000888CC4C54F82240E479204308800020FB
:1007400010BD0120FCE718B5044600BF6946C74844
:100750000078FFF7DCFF0028F8D1BDF80000C0B238
:1007600018BD30B505460C4604E014F8011B2846B8
:10077000FFF789FF20780028F7D130BDF0B5044697
:100780000D46B4FBF5F028B1B4FBF5F6294630462A
:10079000FFF7F4FFB4FBF5F005FB1047B448006821
:1007A000C15DB2480078FFF76EFFF0BD0FB470B5C1
:1007B000064606AD00BF08E01CB9002070BC5DF81D
:1007C00014FB21463046FFF75EFF059810F8011B29
:1007D0000C4605902529EFD1059810F8014B05909E
:1007E000642C01D06C2C03D10A212868FFF7C6FFC6
:1007F0006F2C01D0782C08D16F2C01D1082200E099
:10080000102211462868FFF7B9FF732C03D1304638
:100810002968FFF7A6FF2D1DCDE770B5954C23681D
:10082000047914B10479012C01D1934C236803603D
:10083000047904EB4404914D55F82440246805796B
:1008400005EB45058D4E06EB85056D682C43057956
:1008500005EB450556F825502C600479814D55F877
:100860002440E47824F00C0405797E4E56F8255097
:10087000EC7085682D010468B4FBF5F4A1B204683E
:10088000640185682D01B4FBF5F4202505FB1144B6
:10089000E2B20479354655F82440247824F01F0448
:1008A000057956F825502C700479354655F82440C2
:1008B00064780024057956F825506C700479354623
:1008C00055F82440A47A24F01F04057956F82550E1
:1008D000AC720479354655F824402478C1F30425D8
:1008E0002C43057956F825502C70057956F825507B
:1008F00069700479354655F82440A47A02F01F0542
:100900002C43057956F82550AC72047B24B1022C97
:100910001AD0032C48D12FE00479524D55F82440C9
:10092000A47824F0020405794E4E56F82550AC7098
:100930000479354655F82440A47824F0100405794C
:1009400056F82550AC7030E00479464D55F82440F7
:10095000A47844F002040579424E56F82550AC7054
:100960000479354655F82440A47824F0010405792B
:1009700056F82550AC7018E004793A4D55F82440EB
:10098000A47844F002040579364E56F82550AC7030
:100990000479354655F82440A47844F001040579DB
:1009A00056F82550AC7000E000BF00BF447B14B186
:1009B000012C7DD136E004792A4D55F82440A478E5
:1009C00014F0020F16D0047955F82440A47844F0AE
:1009D00010040579234E56F82550AC70047935463D
:1009E00055F82440A47A24F02004057956F82550BF
:1009F000AC7216E004791B4D55F82440A47824F01D
:100A000010040579174E56F82550AC700479354618
:100A100055F82440A47A24F02004057956F825508E
:100A2000AC7246E004790F4D55F82440A47814F0D8
:100A3000020F25D0047955F82440A47844F010041E
:100A40000579084E56F82550AC700479354655F8AE
:100A50002440A47A44F02004057956F82550AC725D
:100A600025E025E0DC2C0000102D000011E0FF1F28
:100A70000CE0FF1F04E0FF1F00E0FF1FE82C000058
:100A80000479FE4D55F82440A47844F0100405790B
:100A9000FA4E56F82550AC700479354655F8244086
:100AA000A47A24F02004057956F82550AC7200E0B1
:100AB00000BF00BF0479F14D55F82440647924F05B
:100AC00020040579ED4E56F825506C7104793546B1
:100AD00055F82440E47844F00C04057956F8255084
:100AE000EC70E74C247814B10479E64D2C700024A6
:100AF000E34D2C7070BD00BFE04951F8201009791A
:100B000011F0800FF8D0DD4951F82010C97821F09C
:100B10000C01DA4A52F82020D17000EB4001DA4A89
:100B200052F82110096800EB4002D74B03EB820218
:100B30005268914300EB400253F822201160704745
:100B4000D04A1070704751B1CC4A52F82020127C24
:100B500042F08002C94B53F820301A7409E0C74AAA
:100B600052F82020127C22F08002C44B53F820302F
:100B70001A74704751B1C14A52F82020127C42F0D9
:100B80000802BE4B53F820301A7409E0BB4A52F8F1
:100B90002020127C22F00802B84B53F820301A743F
:100BA00070470146B54850F82100007C00F007006E
:100BB000B64A52F820007047B04A52F82020D27846
:100BC00022F00802AD4B53F82030DA70AB4B53F8EB
:100BD0002030D974A94A52F82020D27842F0080275
:100BE000A64B53F82030DA707047A44A52F8202000
:100BF000D27822F00402A14B53F82030DA709F4BD8
:100C000053F8203059759D4A52F82020D27842F08E
:100C100004029A4B53F82030DA70704770B50446DE
:100C20000E46154604EB4400974951F82000006831
:100C300004EB4401944A02EB81014968084304EB48
:100C4000440152F821100860052E73D2DFE806F047
:100C500003391E66940055B1884850F82400C078C6
:100C600040F08000854951F82410C87009E083489D
:100C700050F82400C07820F08000804951F82410FA
:100C8000C8708349085700F044F991E055B17B489A
:100C900050F82400C07840F02000784951F8241022
:100CA000C87009E0754850F82400C07820F0200092
:100CB000724951F82410C8707549085700F029F995
:100CC00076E055B16D4850F82400C07840F08000BF
:100CD0006A4951F82410C87009E0684850F82400A7
:100CE000C07820F08000654951F82410C87055B1D3
:100CF000624850F82400C07A40F080005F4951F803
:100D00002410C87209E05D4850F82400C07A20F031
:100D100080005A4951F82410C87249E05DB1574823
:100D200050F82400C07840F02000544951F82410B5
:100D3000C8700AE03BE0514850F82400C07820F029
:100D400020004E4951F82410C87055B14B4850F856
:100D50002400C07A40F02000484951F82410C8729D
:100D600009E0464850F82400C07A20F020004349AA
:100D700051F82410C8721BE055B1404850F82400C7
:100D8000C07840F010003D4951F82410C87009E0C7
:100D90003A4850F82400C07820F01000374951F844
:100DA0002410C8703A49085700F0B3F800E000BFBB
:100DB00000BF70BD10B500EB4002334B53F822204A
:100DC000126800EB4003304C04EB83035B681A436A
:100DD00000EB400354F823301A6011B12D4A42F859
:100DE000201010BD10B500EB4002274B53F8222015
:100DF000126800EB4003244C04EB83035B681A4346
:100E000000EB400354F823301A6011B1224A42F833
:100E1000201010BD1CB50446184850F82400007975
:100E200010F0800F15D0154850F82400C07810F04D
:100E3000800F0ED0174850F8240020B1154850F804
:100E4000241001A88847BDF804000C4951F824106B
:100E5000C8710A4850F82400007910F0200F26D0FD
:100E6000064850F82400C07810F0200F1FD0034827
:100E700050F82400C079019007480FE0DC2C0000F6
:100E800010E0FF1F11E0FF1FE82C0000102D0000F4
:100E90000C2D000048E0FF1F54E0FF1F50F8240015
:100EA00028B1224850F82410BDF804008847204893
:100EB00050F82400007910F0080F04D01C4850F8B6
:100EC0002400C07900901A4850F82400007910F0EE
:100ED000100F0ED0164850F82400C0790090134827
:100EE00050F8240028B1114850F824104FF6FF7034
:100EF00088471CBD10B50020FFF78CFF10BD10B552
:100F00000120FFF787FF10BD10B50220FFF782FF19
:100F100010BD00F01F020121914042094FF0E02373
:100F200003EB8202C2F800117047000054E0FF1F7B
:100F3000DC2C000030B5FB4CA04206D1FA4CA46B6F
:100F400044F40074F84DAC6326E0F84CA04206D19E
:100F5000F54CA46B44F48064F34DAC631CE0F44C9A
:100F6000A04206D1F04CA46B44F40064EE4DAC6397
:100F700012E0F04CA04206D1EB4CA46B44F4805438
:100F8000E94DAC6308E0EC4CA04205D1E64CA46B03
:100F900044F40054E44DAC6350F8224024F4E0647F
:100FA00040F8224050F8224044F4807440F8224037
:100FB000B3B150F8224044F0400440F8224050F8C9
:100FC000224024F0020440F822404C69012595405B
:100FD0002C434C614D680124944025434D600AE048
:100FE00050F8224044F0030440F822404D690124A7
:100FF0009440A5434D6130BD426801238B401A43A4
:1010000042607047826801238B401A4382607047B8
:10101000C26801238B401A43C26070470246C7482A
:1010200082420AD1C648006820FA01F010F0010F90
:1010300001D0002070470120FCE7C248006820FA78
:1010400001F010F0010F01D00020F3E70120F1E7DB
:1010500010B5B54B9B6BBC4C54F820402343B24CAD
:10106000A363012A0BD1B94B53F820305B690124EB
:101070008C402343B54C54F8204063610AE0B34BE5
:1010800053F820305B6901248C40A343AF4C54F8E3
:101090002040636110BD10B5A34B9B6BAA4C54F864
:1010A00020402343A04CA3635AB1A84B53F82030EF
:1010B0005B6801248C402343A44C54F820406360B7
:1010C0000AE0A24B53F820309B6801248C40234354
:1010D0009E4C54F82040A36010BD02469B4850F837
:1010E00022004069C84010F0010F07D0974850F81F
:1010F00022000068C84000F001007047934850F893
:1011000022000069C84000F00100F6E710B5864BE8
:101110009B6B8D4C54F820402343834CA3638C4B32
:1011200053F8203053F8213023F4E063884C54F80E
:10113000204044F82130864B53F8203053F82130BA
:101140004FF4E06404EA02242343814C54F8204025
:1011500044F8213010BD10B5734B9B6B7A4C54F89A
:1011600020402343704CA36362B1794B53F8203085
:1011700053F8213043F02003754C54F8204044F8D4
:1011800021300BE0724B53F8203053F8213023F01C
:1011900020036F4C54F8204044F8213010BD10B5A6
:1011A000614B9B6B684C54F8204023435E4CA36317
:1011B00022B1012A0FD0022A3FD125E0644B53F817
:1011C000203053F8213023F00203614C54F82040C2
:1011D00044F8213032E05E4B53F8203053F8213090
:1011E00043F002035A4C54F8204044F82130584B45
:1011F00053F8203053F8213043F00103544C54F895
:10120000204044F8213019E0514B53F8203053F876
:10121000213043F002034E4C54F8204044F8213072
:101220004B4B53F8203053F8213023F00103484C46
:1012300054F8204044F8213000E000BF00BF10BD4A
:1012400010B504466078052854D2DFE800F0031397
:1012500023334300217920780022FFF7A0FF217972
:1012600020780022FFF777FF217920780022FFF70E
:10127000EFFE40E0217920780222FFF790FF2179EC
:1012800020780022FFF767FF217920780022FFF7FE
:10129000DFFE30E0217920780122FFF780FF2179FD
:1012A00020780022FFF757FF217920780022FFF7EE
:1012B000CFFE20E0217920780122FFF770FF21790D
:1012C00020780122FFF747FF217920780122FFF7DC
:1012D000BFFE10E0217920780022FFF760FF21791E
:1012E00020780022FFF737FF217920780122FFF7CD
:1012F000AFFE00E000BF00BF217920780122FFF798
:1013000005FF10BD7CB504460D461646E0B28DF8CB
:1013100000008DF8016001956846FFF791FFE0B28B
:101320007CBD0000009004400080044000A0044008
:1013300000B0044000C0044000D00440C0F00F40A2
:10134000D0F00F4010F10F40542D00002C2D000064
:10135000402D0000644A926B644B53F820301A43CE
:10136000614B9A6311B1624A42F8201070472DE92F
:10137000F04104460D4616461F465B48806B5B49AC
:1013800051F824100843584988635A4850F82400FB
:1013900050F8250020F47020564951F8241041F8E7
:1013A000250067B95449085700F01F0201219140F8
:1013B000524A430942F8231000BFBDE8F081082ECD
:1013C00070D2DFE806F004111E2B3C4D5E704948D8
:1013D00050F8240050F8250040F48030454951F879
:1013E000241041F8250070E0424850F8240050F8DD
:1013F000250040F400303F4951F8241041F8250001
:1014000063E03C4850F8240050F8250040F4403098
:10141000384951F8241041F8250056E0354850F875
:10142000240050F8250040F40020324951F82410DF
:1014300041F825003049085700F04AF845E02D48AA
:1014400050F8240050F8250040F41020294951F8A4
:10145000241041F825002849085700F039F834E0F5
:10146000244850F8240050F8250040F42020214959
:1014700051F8241041F825001F49085700F028F8BA
:1014800023E01C4850F8240050F8250040F4302098
:10149000184951F8241041F825001749085700F061
:1014A00017F812E010E0134850F8240050F8250017
:1014B00040F440200F4951F8241041F825000E490E
:1014C000085700F005F800E000BF00BF00BF74E758
:1014D00000F01F020121914042094FF0E02303EB8D
:1014E0008202C2F80011704700800440542D0000B1
:1014F00060E0FF1F402D0000682D000080E100E04B
:1015000010B5FEF7DEFF10BD2B49086000BF2A4969
:1015100009680029FBD1704730B50146274C626845
:10152000274C2468274DB4FBF5F404FB01F3D018D5
:10153000904205D900BF214C64688442FBD309E086
:1015400000BF1E4C64688442FBD800BF1B4C64681B
:101550008442FBD330BD10B504462046FFF7DCFFC4
:1015600010BD1549086000BF134909680029FBD167
:1015700070471148006820B10F480068401E0E49AE
:101580000860704710480068401C0F490860084612
:101590000068B0F1004F01D10020086070470120C1
:1015A00080F3108800BF08480168002080F310888D
:1015B00000BF0846704700001CE0FF1F001000E05D
:1015C00000E0FF1F40420F0020E0FF1F2DE9F04127
:1015D00005461F46C94B1B684FEA530C4FEA1C4394
:1015E000B3FBF2F4002001E0431CD8B234FA00F35C
:1015F000FAD1B2F57A7F01D2431CD8B22CFA00F3AB
:10160000B3FBF2F423465B1C7B4342F21078B3FB3E
:10161000F8F615B1012D79D18DE0B94BDB6B43F0B4
:101620008073DFF8DC82C8F83C3008297FD2DFE81D
:1016300001F004132231404F5E6FB14B9B6B43F4BA
:101640000063DFF8BC82C8F838304FF48063DFF8FD
:10165000B482C8F804306CE0A94B9B6B43F4007370
:10166000DFF89C82C8F838304FF44073DFF8988276
:10167000C8F810305DE0A24B9B6B43F40063DFF8C9
:101680008082C8F838304FF48063DFF87882C8F879
:101690000C304EE09A4B9B6B43F40063DFF86082A2
:1016A000C8F838304FF48063DFF85882C8F810303B
:1016B0003FE0934B9B6B43F48053DFF84482C8F8C0
:1016C00038304FF48063DFF84482C8F8103030E0DF
:1016D0008B4B9B6B43F48053DFF82482C8F838307F
:1016E0004FF48063DFF82482C8F8143021E0844B83
:1016F0009B6B43F48053DFF80882C8F838304FF40E
:101700008063DFF80882C8F8183012E040E00EE08D
:101710007B4B9B6B43F48053DFF8E481C8F838308F
:101720004FF48063DFF8E481C8F81C3001E0BDE8C5
:10173000F08100BF2DE0724BDB6B43F00073DFF8EC
:10174000C081C8F83C3011B101291ED10EE06C4BAC
:101750009B6B43F40073DFF8A881C8F838304FF46E
:101760004073DFF8A481C8F830300FE0644B9B6B06
:1017700043F40073DFF88881C8F838304FF44073C1
:10178000DFF88481C8F8343000E0D0E700BF00E023
:1017900000BF00BF15B1012D4CD125E05C4B53F8C3
:1017A000313023F004085A4B43F831804FF02808B9
:1017B00043F83180564B0C3B9C6000F0070343F02C
:1017C0002803DFF84C81A8F10C08C8F8003000238A
:1017D000C8F84C30C8F84C304D4B03EBC1035E6089
:1017E0000023C8F8043026E04A4B53F8313023F088
:1017F0000408484B43F831804FF0280843F8318003
:10180000444B0C3B9C6000F0070343F02803DFF8D7
:101810000481A8F10C08C8F800300023C8F84C3047
:10182000C8F84C303B4B03EBC1035E600023C8F8A3
:10183000043000E000BF00BF00BF78E770B5044689
:101840000B4614B1012C1ED10EE0314D0C3DA968A0
:101850000D466D1C554342F21076B5FBF6F02C4D4B
:1018600005EBC30568600FE02A4D0C3DA9680D46E5
:101870006D1C554342F21076B5FBF6F0254D05EB95
:10188000C305686000E000BF00BF70BD70B50346CF
:101890001A4D2D686C08250CB5FBF1F2002001E013
:1018A000451CE8B232FA00F5FAD124FA00F5B5FB8E
:1018B000F1F213B1012B1ED10EE000F0070545F047
:1018C0002805134E0C3E35600025F5643546AA60A8
:1018D0000025F56475600FE000F0070545F0280568
:1018E0000C4E0C3E35600025F5643546AA60002597
:1018F000F564756000E000BF00BF70BD04E0FF1F2D
:101900000080044000B004400090044000C0044047
:101910000C8003400C90034010B5002807DA0A073A
:10192000140E674A00F00F031B1FD45403E00A078C
:10193000130E644A135410BD2DE9F04106460D46BE
:1019400017461C46052E78D2DFE806F0031A314808
:101950005F00282000F0ABF839462820FFF7DCFFB5
:101960004FF4702000EA044040F48070801C40EA8C
:10197000D410554941F82500282000F08CF85DE08E
:10198000292000F094F839462920FFF7C5FF4FF4CD
:10199000702000EA044040F48070801C40EAD410BB
:1019A0004A4941F82500292000F075F846E02A2030
:1019B00000F07DF839462A20FFF7AEFF4FF4702083
:1019C00000EA044040F48070801C40EAD410404992
:1019D00041F825002A2000F05EF82FE02B2000F0CF
:1019E00066F839462B20FFF797FF4FF4702000EA86
:1019F000044040F48070801C40EAD410354941F81E
:101A000025002B2000F047F818E02C2000F04FF8BC
:101A100039462C20FFF780FF4FF4702000EA044085
:101A200040F48070801C40EAD4102B4941F8250016
:101A30002C2000F030F801E0FFE700BF00BFBDE858
:101A4000F08110B51E2000F032F803211E20FFF7B0
:101A500063FF1E2000F01FF81F2000F028F804216B
:101A60001F20FFF759FF1F2000F015F8202000F07D
:101A70001EF805212020FFF74FFF202000F00BF873
:101A8000212000F014F806212120FFF745FF212036
:101A900000F001F810BD00F01F0201219140420941
:101AA0004FF0E02303EB8202C2F80011704700F010
:101AB0001F0201219140094A430942F8231070474F
:101AC00018ED00E000E400E00090044000A00440B5
:101AD00000B0044000C0044000D0044080E200E0B8
:101AE0005F49C96B41F400015D4AD1635D490968F2
:101AF0005D4A1160114609685C4AB1FBF2F15A4A2D
:101B00001160416812685143594A037802EB03128D
:101B100011605749027801EB0211896841F0010216
:101B20005349037801EB03118A605249096821F097
:101B30000201504A116070473CB505460C468DF8CD
:101B4000005001946846FFF7CBFF3CBD70B50B46D3
:101B50004349C96B41F40001414CE16372B1464C09
:101B6000215601F01F050124AC404D094FF0E0263D
:101B700006EB8505C5F8004100BF00BF52B13C49E6
:101B800001EB0011896841F00204394901EB0011B1
:101B90008C6009E0364901EB0011896821F00204EC
:101BA000334901EB00118C604AB9314901EB001156
:101BB000C96841F001042E4901EB0011CC6070BDF1
:101BC0002B4901EB0011896821F00102284901EB42
:101BD00000118A60264901EB0011896841F0010279
:101BE000234901EB00118A6070470146204800EB51
:101BF0000110406870471A4AD26B42F40002184B39
:101C0000DA6311B11D4A42F82010704710B504463E
:101C1000174800EB0410C06840F00101144800EBC5
:101C20000410C160154850F8240018B1134951F848
:101C30002400804710BD10B50020FFF7E7FF10BD5E
:101C400010B50120FFF7E2FF10BD10B50220FFF72D
:101C5000DDFF10BD10B50320FFF7D8FF10BD000059
:101C60000080044004E0FF1F24E0FF1F40420F00FB
:101C700000710340007003406D2D000074E0FF1FF1
:101C80002DE9FF4F82B004468C46DDF810B0F848CD
:101C900050F82400006810F0004F03D1002006B077
:101CA000BDE8F08F4FF0FF324FF000084FF0000911
:101CB0000120019000200090002126E000231FE079
:101CC000012518E0EB4850F82100DFF8ACE35EF89E
:101CD00023E000FB0EFE05986843B0FBFEF6B3451B
:101CE00008D3ABEB060A524504D9524688469946BA
:101CF000009601956D1C032D01D2002AE2D15B1CD8
:101D0000102B01D2002ADBD1491C042901D2002A60
:101D1000D4D1D74850F824000C3050F82C70D74854
:101D200007400198401E0BD04FF4403000EA0840B5
:101D300040F0004009F00F0E40EA0E00074308E0B3
:101D40004FF4403000EA084009F00F0E40EA0E0060
:101D50000743C74850F824000C3040F82C70009816
:101D60009DE72DE9F05F06460C4617469846DDE9EB
:101D70000AABBF4850F8265005F10C0050F824007B
:101D800020F0F04105F10C0040F8241050F8240038
:101D9000A8F101014FF0F04202EAC161084305F1E8
:101DA0000C0141F82400BAF1000F03D0BAF1010F81
:101DB00016D10AE005F10C0050F8240020F08071E3
:101DC00005F10C0040F824100BE005F10C0050F870
:101DD000240040F0807105F10C0040F8241000E070
:101DE00000BF00BF37B1012F17D0022F28D0032F1B
:101DF0004CD138E005F10C0050F8240020F080614F
:101E000005F10C0040F8241050F8240020F0007177
:101E100005F10C0040F8241039E005F10C0050F8F1
:101E2000240020F0806105F10C0040F8241050F8E7
:101E3000240040F0007105F10C0040F8241026E069
:101E400005F10C0050F8240040F0806105F10C0011
:101E500040F8241050F8240020F0007105F10C0027
:101E600040F8241013E005F10C0050F8240040F075
:101E7000806105F10C0040F8241050F8240040F077
:101E8000007105F10C0040F8241000E000BF00BF15
:101E90007B48D0F80090E1B24B465A463046FFF7F7
:101EA000EFFE05F10C0050F824007649084305F1D7
:101EB0000C0141F82400BDE8F09F7CB505466C4953
:101EC000286851F82040286800EB40006E4951F81E
:101ED00020000068296801EB41016B4A02EB810197
:101EE00049680843296801EB410152F82110086054
:101EF000206840F001002060287910B101280AD143
:101F000004E0206840F00040206005E0206820F0F8
:101F10000040206000E000BF00BF206820F4804047
:101F200020602068594908432060A979A868CDE954
:101F300000106B79EA79E9682868FFF712FF4FF023
:101F4000FF30E062206820F0010020607CBD484A3C
:101F500052F82020126822F48042454B53F820307A
:101F60001A6051B1424A52F82020126822F40052FD
:101F70003F4B53F820301A6009E03D4A52F82020C8
:101F8000126842F400523A4B53F820301A607047FE
:101F9000374A52F82020126822F48042344B53F81A
:101FA00020301A6051B1324A52F82020126822F4CF
:101FB00080522F4B53F820301A6009E02C4A52F817
:101FC0002020126842F48052294B53F820301A60C6
:101FD0007047F0B503460C46254951F8230024B15B
:101FE000012C1BD0022C55D12DE022B1016B41F008
:101FF0000041016303E0016B21F000410163244DC6
:10200000E95601F01F060125B5404E094FF0E027C3
:1020100007EB8606C6F8005100BF3CE022B1016B19
:1020200041F00071016303E0016B21F00071016375
:1020300022B1016B41F08071016303E0016B21F07B
:102040008071016327E022B1016B41F4003101632B
:1020500003E0016B21F40031016322B1016B41F413
:102060008031016303E0016B21F48031016312E0F0
:10207000742D0000882D0000982D0000F0FFFC7FDB
:1020800004E0FF1F00115000782D0000013C3F00CC
:10209000842D000000BF00BFF0BD11B12D4A42F8F1
:1020A00020107047F0B50446059D4FF0004000EA4F
:1020B000C5704FF0E04606EA0176304301269E40A7
:1020C0004FF47C1707EA0646304396B23043224E5F
:1020D00056F824607063204850F82400006B10F01C
:1020E000004F11D100BF1C4850F82400C06A10F006
:1020F000004FF8D0184850F82400C06A40F0004063
:10210000154E56F82460F062134850F82400806B96
:1021100080B2F0BD10B504460F4850F82400C06AE4
:1021200040F000400C4951F82410C862094850F8AA
:10213000240018B1074951F82400804710BD10B59C
:102140000020FFF7E7FF10BD10B50120FFF7E2FF09
:1021500010BD000028E0FF1F742D000072B64CF285
:1021600020505249C8814DF62810C88162B6704788
:102170002DE9F04104464E48076840F2D316207816
:1021800010B1012806D102E026F0080603E046F06F
:10219000080600E000BF00BFFFF7E0FFF8084FF4BB
:1021A0007A71B0FBF1F0616800FB01F5280C3F4942
:1021B0008880CD80F8084FF47A71B0FBF1F0A16807
:1021C00000FB01F5280C394908814D814FF4E0608E
:1021D000C88246F001060E80BDE8F0813EB5044697
:1021E00000208DF800000194600802906846FFF717
:1021F000BFFF3EBD10B50446FFF7B0FF012C06D16E
:102200002A48008840F004002849088005E0274853
:10221000008820F0040025490880012C0BD10A20F9
:102220000121814042094FF0E02303EB8202C2F812
:10223000001100BF08E00A20012181401D4A430926
:1022400042F8231000BF00BF10BD08B11A49086052
:1022500070471648808A70474FF6FF70134988828E
:1022600070471249098A08041049498A084370478F
:1022700072B64AF202610D4A91814BF2804191811E
:1022800062B6002001E000BF401C1428FBD3704759
:1022900010B50648408840F400400449488006488C
:1022A000006810B104490868804710BD002005404F
:1022B00004E0FF1F80E100E02CE0FF1F0246F6482B
:1022C00050F8220050F8210010F0800F01D00020BB
:1022D00070470120FCE730B50146EF4850F8210077
:1022E000406A40F04000EC4D55F821506862EA48E1
:1022F00050F82100406A40F08000E74D55F8215029
:102300006862002400E0641CE4488442FBD3E24895
:1023100050F82100406A10F0400F01D0012030BD7C
:102320000022DD4850F82100C06C0244DA4850F821
:102330002100806C0244D84850F82100406C0244CF
:10234000D54850F82100006C0244D34850F82100D1
:10235000C06B0244D04850F82100806B02444FF417
:10236000004040EA52020023CB4850F82100C06EE2
:102370000344C94850F82100806E0344C64850F811
:102380002100406E0344C44850F82100006E03440D
:10239000C14850F82100C06D0344BF4850F82100E7
:1023A000806D03444FF4004040EA5303BA4850F8AC
:1023B0002100406A20F08000B74D55F82150686236
:1023C000B54850F82100C262B34850F821000363B9
:1023D0000020A4E710B50446206800EB4000B04997
:1023E00051F820000068216801EB4101AC4A02EB82
:1023F000810149680843216801EB410152F821102D
:102400000860A549206851F82000806820F060002D
:10241000A14A216852F8211088601146206851F8BD
:10242000200080686179602202EA411108439A4ADB
:10243000216852F8211088601146206851F8200068
:10244000806840F08000216852F8211088601146B1
:10245000206851F82000006A20F00300216852F83B
:10246000211008621146206851F82000006AA17A04
:1024700001F003010843216852F821100862114657
:10248000206851F82000806820F00C00216852F884
:10249000211088601146206851F820008068A179D9
:1024A0000C2202EA810108437B4A216852F821107C
:1024B0008860207901280BD11146206851F820004E
:1024C000006A40F04000216852F8211008620BE0D9
:1024D0007149206851F82000006A00F040006E4AFF
:1024E000216852F821100862207A60B96A49206890
:1024F00051F82000406A40F00800674A216852F80D
:10250000211048620BE06449206851F82000406ABD
:1025100020F00800604A216852F821104862607A71
:10252000052878D2DFE800F00310315478005A49CA
:10253000206851F82000406A20F00400564A2168C3
:1025400052F8211048628BE05349206851F820006E
:10255000406A40F00400504A216852F82110486255
:102560001146206851F82000406A20F003002168DD
:1025700052F8211048621146206851F82000406A44
:10258000216852F8211048626AE04349206851F8F6
:102590002000406A40F004003F4A216852F82110B0
:1025A00048621146206851F82000406A20F003007C
:1025B000216852F8211048621146206851F8200025
:1025C000406A40F00100216852F82110486247E05B
:1025D0003149206851F82000406A40F004002E4A3A
:1025E000216852F8211048621146206851F82000F5
:1025F000406A20F00300216852F821104862114619
:10260000206851F82000406A40F00200216852F82A
:102610002110486224E022E01F49206851F8200080
:10262000406A40F004001C4A216852F821104862B8
:102630001146206851F82000406A20F0030021680C
:1026400052F8211048621146206851F82000406A73
:1026500040F00300216852F82110486200E000BFFA
:1026600000BF2068FFF737FE10BD51B10A4A52F88B
:102670002020126A42F04002074B53F820301A62C1
:1026800009E0054A52F82020126A02F04002024B8B
:1026900053F820301A627047D82D0000A086010040
:1026A000DC2D000049B9844A52F82020D26822F07B
:1026B0001002814B53F82030DA60012909D17E4A9B
:1026C00052F82020D26842F010027B4B53F82030A1
:1026D000DA60704773B584B00E4604AC207800F021
:1026E0000700019003208DF809008DF80A60002092
:1026F0008DF808008DF80B0001208DF80C000020EB
:102700008DF80D008DF80E00002518E02388C3F326
:102710008212C3F344232B44D9B22378C3F3C200FB
:10272000FEF7F4FC2288C2F344222A44D1B2227874
:10273000C2F3C2000022FEF732FD681CC5B2206859
:10274000C0F38430A842E1DC01A8FFF743FE226811
:10275000110E227802F00700FFF7A4FF207800F0A6
:10276000070006B070BD10B5534B53F8203053F836
:10277000223023F01F03504C54F8204044F82230FC
:102780004D4B53F8203053F8223001F01F042343FF
:10279000494C54F8204044F8223010BD02464648C7
:1027A00050F82200103050F82100704771B56C4687
:1027B000207800F007052068C0F3C44600223146A7
:1027C0002846FFF7D0FF00BF3B4850F825000068BF
:1027D00010F0800FF8D000212846FFF7DFFF78BD0A
:1027E00070B5134633B1012B1CD0022B25D0032B1F
:1027F00049D13DE0314C225602F01F050124AC4086
:102800002F4D560945F8264000BF2B4A52F820208C
:1028100052F8212022F04002274C54F8204044F87E
:10282000212031E0244A52F82020126A22F00402CA
:10283000214C54F82040226226E01F4A52F8202002
:1028400052F8212042F040021B4C54F8204044F83A
:1028500021201A4C225602F01F050124AC405509D4
:102860004FF0E02606EB8505C5F8004100BF0BE000
:10287000114A52F82020126A42F004020E4C54F819
:102880002040226200E000BF00BF70BD11B10D4AC0
:1028900042F82010704710B50A48006810B1094985
:1028A0000868804710BD10B50648406810B105495A
:1028B0004868804710BD0000D82D0000E82D0000BA
:1028C00080E100E030E0FF1F10B5012304222D4914
:1028D0002D48FEF72FFB012305222A492A48FEF73F
:1028E00029FB01230C2227492748FEF723FB01235C
:1028F0000D2224492448FEF71DFB01230222214911
:1029000040312248FEF716FB012303221D49803186
:102910001F48FEF70FFB012306221A49C0311D484C
:10292000FEF708FB012300221B491C48FEF702FBAF
:1029300001231A4618491948FEF7FCFA10BDFEF7A4
:10294000DFFDFFF7C1FF44F620610020FFF7F4F838
:1029500040F21453322202210020FEF737FE0221FA
:1029600008484030FEF74EFB012211461046FEF7A4
:10297000C9FC8B23032201210846FEF7DDFF00BFBF
:10298000FEE7000000F00F400090044000A004406B
:1029900000B0044000C0044000F10F4000D00440EB
:1029A00010B54FF0E020006910F4803F01D0FEF731
:1029B000E0FD10BD10B50D21A548FEF729FBA54887
:1029C0000068A54908600020FFF70FF9A1490860D9
:1029D000A14800680968884207D09F4800689D495F
:1029E0000968401A9D49086002E000209B49086080
:1029F0009A480068002804DA9848006840429749DD
:102A0000086050E016E041F2707095490860084691
:102A100000681E3808609348022102680020FEF713
:102A20000DFF8F480068FEF796FD8E480068401E37
:102A30008C4908608B48006840F24C418842E2DCD7
:102A40000EE08848022102680020FEF7F7FE40F6FB
:102A5000B830FEF780FD83480068401E8149086059
:102A600080480068B0F5347FEBDC16E040F6B83003
:102A70007B490860084600681E30086079480221DA
:102A800002680020FEF7DAFE75480068FEF763FD75
:102A900074480068401E7349086072480068B0F5C9
:102AA0001B7FE3DC0BE06D4800684BF68031884209
:102AB00005DD6A4800684BF668718842A2DB00BFFA
:102AC00050E016E041F27070654908600846006801
:102AD0001E3808606348022102680020FEF7AEFE3F
:102AE0005F480068FEF737FD5E480068401C5D499E
:102AF00008605C480068B0F5347FE3DB0EE05948BD
:102B0000022102680020FEF799FE40F6B830FEF779
:102B100022FD54480068401C524908605148006832
:102B2000B0F5966FEBDB16E040F6B8304C49086024
:102B3000084600681E3008604A48022102680020EA
:102B4000FEF77CFE46480068FEF705FD4548006834
:102B5000401C444908604348006840F214518842D0
:102B6000E2DB09E03D4800683F49884204DD3B481C
:102B700000683E498842A4DB00BF3D4800684FF032
:102B8000FF303C49C1F8A00010BD10B50421304809
:102B9000FEF73EFA642201210020FEF74FFE364880
:102BA00000684FF0FF303549C1F8A00010BD10B5E6
:102BB00033480068C0F3801018B104212448FEF7A0
:102BC00027FA2F480068C0F3C01018B1052120482B
:102BD000FEF71EFA2A4800684FF0FF302949C1F875
:102BE000A00010BD10B528480068C0F3801018B1CF
:102BF00004211748FEF70CFA23480068C0F3C01000
:102C000018B105211248FEF703FA1F4800684FF07B
:102C1000FF301E49C1F8A00010BD10B51C48006867
:102C2000C0F3801018B104210948FEF7F1F91848E3
:102C30000068C0F3C01018B105210548FEF7E8F997
:102C4000134800684FF0FF301249C1F8A00010BDD2
:102C500000F00F403CE0FF1F40E0FF1F44E0FF1F7B
:102C600034E0FF1F38E0FF1F00770100E87A010021
:102C7000A0A0044000A00440A090044000900440A4
:102C8000A0B0044000B00440A0C0044000C0044014
:102C9000A0D0044000D00440064C074D06E0E06898
:102CA00040F0010394E8070098471034AC42F6D393
:102CB000FDF7B2FBFC2D00001C2E000002E008C84E
:102CC000121F08C1002AFAD170477047002001E0A6
:102CD00001C1121F002AFBD17047000000A006406E
:102CE00000B0064000C006403480044000040000EC
:102CF00000000000348004400008000000000000D4
:102D00003480044000100000000000001012140085
:102D10000100000004000000080000001000000096
:102D200020000000400000008000000000F00F4084
:102D300040F00F4080F00F40C0F00F4000F10F4016
:102D40000090044000A0044000B0044000C00440D3
:102D500000D0044000020000000400000008000051
:102D6000001000000020000028292A2B2C1E1F2004
:102D70002100000000C002403C8004400010000020
:102D8000000000000C000000020000000300000032
:102D90000500000007000000020000000400000021
:102DA00006000000080000001000000020000000E5
:102DB0004000000080000000000100000002000050
:102DC00000040000000800000010000000200000C7
:102DD000004000000080000000B003403C80044040
:102DE0000000000800000000163031323334353660
:102DF0003738394142434445460000001C2E00004C
:102E000000E0FF1F48000000BC2C0000642E000002
:102E100048E0FF1F40040000CC2C0000006CDC02E6
:102E2000006CDC0200366E01E92D0000010000009C
:102E30000000000000000000000000000000000092
:102E40000000000000000000000000000000000082
:102E50000000000000000000000000000000000072
:042E6000000000006E
:0400000500000411E2
:00000001FF
