:020000040000FA
:1000000050E4FF1F4D060000550600005706000093
:10001000590600005B0600005D06000000000000BD
:100020000000000000000000000000005F0600006B
:100030006106000000000000630600008D1500004E
:1000400067060000670600006706000067060000FC
:1000500067060000670600006706000067060000EC
:1000600067060000670600006706000067060000DC
:1000700067060000670600006706000067060000CC
:1000800067060000670600006706000067060000BC
:1000900067060000670600006706000067060000AC
:1000A000670600006706000067060000670600009C
:1000B0006706000067060000D3130000DD13000090
:1000C000E7130000F1130000670600006706000058
:1000D000670600006706000067060000670600006C
:1000E00067060000A1150000670600004316000027
:1000F0005316000067060000670600006706000050
:10010000670600006706000067060000670600003B
:10011000670600006706000067060000670600002B
:10012000670600006706000067060000670600001B
:10013000670600006706000067060000670600000B
:10040000FFFFFFFFFFFFFFFFFFFFFFFFFEFFFFFFFD
:10041000DFF80CD001F040F9004800479D140000BF
:1004200050E4FF1F4CF220507F49C8814DF6281040
:10043000C8814FF4E97008804FF480307B494864EC
:1004400000207B4908707B490873242048709A205B
:1004500008700846C07800F01F00C87003200871BB
:100460000020487100BF7348807910F0020FFAD065
:1004700000BF7048807900F00C000828F9D10320F3
:100480006C4908714020487100BF6A48807910F0BB
:10049000200FFAD000BF6748807910F0400FFAD0E3
:1004A0001A206449087000BF6248807900F00C008F
:1004B0000C28F9D100BF5F48807910F0400FFAD0C6
:1004C00070475C4A127812F0C00F66D1594A5279CF
:1004D00012F0400F51D1574A127812F0040F18D180
:1004E000544A127B12F0010F01D1534801E04FF43E
:1004F0000040504A1278C2F3C20301229A40D1B29E
:10050000B0FBF1F04B4A527812F0300F03D04009A3
:1005100001E04FF40040474AD27802F0E00212F0C6
:100520001F0F28D15211082A25D2DFE802F0040853
:100530000C1014181C2000EB8002D0011CE000EB12
:100540008002100218E0C0EB0012D00114E000EBB2
:100550008002500210E04FF4377250430CE04FF429
:10056000B762504308E040F69502504304E040F67D
:100570007132504300E000BF38E02E4A127902F099
:100580001F02511C2C4AB2FBF1F02A4A527902F0A8
:100590001F0202F11801484328E0264A127802F0AF
:1005A000C002402A11D1234A527812F0010F02D121
:1005B0004FF400401AE01F4A127AC2F342030122AC
:1005C0009A401E4BB3FBF2F010E01A4A127802F088
:1005D000C002802A09D1174A127B12F0010F01D103
:1005E000154803E04FF4004000E070470F4A526C9A
:1005F000012303EB1272B0FBF2F2114B1A600B4AAB
:10060000526CC2F30362521CB0FBF2F20D4B1A6043
:10061000064A526CC2F30342521CB0FBF2F20A4B80
:100620001A6000BFE1E700000020054000800440A0
:10063000005006400040064000127A0000093D00CC
:1006400000E0FF1F04E0FF1F08E0FF1F064880478F
:1006500006480047FEE7FEE7FEE7FEE7FEE7FEE7A7
:10066000FEE7FEE7FEE7FEE72504000011040000B8
:1006700030B5FB4CA04206D1FA4CA46B44F4007494
:10068000F84DAC6326E0F84CA04206D1F54CA46BC3
:1006900044F48064F34DAC631CE0F44CA04206D1FA
:1006A000F04CA46B44F40064EE4DAC6312E0F04CEB
:1006B000A04206D1EB4CA46B44F48054E94DAC63EA
:1006C00008E0EC4CA04205D1E64CA46B44F4005485
:1006D000E44DAC6350F8224024F4E06440F822403A
:1006E00050F8224044F4807440F82240B3B150F8EE
:1006F000224044F0400440F8224050F8224024F0C8
:10070000020440F822404C69012595402C434C617D
:100710004D680124944025434D600AE050F8224082
:1007200044F0030440F822404D6901249440A5435D
:100730004D6130BD426801238B401A4342607047CF
:10074000826801238B401A4382607047C26801238C
:100750008B401A43C26070470246C74882420AD1A2
:10076000C648006820FA01F010F0010F01D0002007
:1007700070470120FCE7C248006820FA01F010F041
:10078000010F01D00020F3E70120F1E710B5B54BD0
:100790009B6BBC4C54F820402343B24CA363012A0A
:1007A0000BD1B94B53F820305B6901248C402343B3
:1007B000B54C54F8204063610AE0B34B53F8203045
:1007C0005B6901248C40A343AF4C54F82040636123
:1007D00010BD10B5A34B9B6BAA4C54F8204023438B
:1007E000A04CA3635AB1A84B53F820305B68012496
:1007F0008C402343A44C54F8204063600AE0A24B91
:1008000053F820309B6801248C4023439E4C54F8BD
:100810002040A36010BD02469B4850F8220040696A
:10082000C84010F0010F07D0974850F82200006828
:10083000C84000F001007047934850F8220000695A
:10084000C84000F00100F6E710B5864B9B6B8D4C5D
:1008500054F820402343834CA3638C4B53F820303F
:1008600053F8213023F4E063884C54F8204044F8D6
:100870002130864B53F8203053F821304FF4E06498
:1008800004EA02242343814C54F8204044F82130E8
:1008900010BD10B5734B9B6B7A4C54F8204023432A
:1008A000704CA36362B1794B53F8203053F8213078
:1008B00043F02003754C54F8204044F821300BE0FD
:1008C000724B53F8203053F8213023F020036F4C43
:1008D00054F8204044F8213010BD10B5614B9B6B9B
:1008E000684C54F8204023435E4CA36322B1012A94
:1008F0000FD0022A3FD125E0644B53F8203053F843
:10090000213023F00203614C54F8204044F8213098
:1009100032E05E4B53F8203053F8213043F00203AD
:100920005A4C54F8204044F82130584B53F82030AA
:1009300053F8213043F00103544C54F8204044F85C
:10094000213019E0514B53F8203053F8213043F057
:1009500002034E4C54F8204044F821304B4B53F8DE
:10096000203053F8213023F00103484C54F8204044
:1009700044F8213000E000BF00BF10BD10B50446B0
:100980006078052854D2DFE800F0031323334300D6
:10099000217920780022FFF7A0FF2179207800221A
:1009A000FFF777FF217920780022FFF7EFFE40E084
:1009B000217920780222FFF790FF21792078002208
:1009C000FFF767FF217920780022FFF7DFFE30E094
:1009D000217920780122FFF780FF217920780022F9
:1009E000FFF757FF217920780022FFF7CFFE20E0A4
:1009F000217920780122FFF770FF217920780122E8
:100A0000FFF747FF217920780122FFF7BFFE10E0B2
:100A1000217920780022FFF760FF217920780022D9
:100A2000FFF737FF217920780122FFF7AFFE00E0C2
:100A300000BF00BF217920780122FFF705FF10BD1C
:100A40007CB504460D461646E0B28DF800008DF8E0
:100A5000016001956846FFF791FFE0B27CBD0000A0
:100A6000009004400080044000A0044000B0044016
:100A700000C0044000D00440C0F00F40D0F00F4050
:100A800010F10F4004170000DC160000F016000003
:100A9000644A926B644B53F820301A43614B9A635B
:100AA00011B1624A42F8201070472DE9F041044626
:100AB0000D4616461F465B48806B5B4951F8241073
:100AC0000843584988635A4850F8240050F82500D4
:100AD00020F47020564951F8241041F8250067B9D8
:100AE0005449085700F01F0201219140524A43091E
:100AF00042F8231000BFBDE8F081082E70D2DFE875
:100B000006F004111E2B3C4D5E70494850F824003D
:100B100050F8250040F48030454951F8241041F840
:100B2000250070E0424850F8240050F8250040F4B9
:100B300000303F4951F8241041F8250063E03C485B
:100B400050F8240050F8250040F44030384951F85E
:100B5000241041F8250056E0354850F8240050F89C
:100B6000250040F40020324951F8241041F82500B6
:100B70003049085700F04AF845E02D4850F8240065
:100B800050F8250040F41020294951F8241041F86C
:100B900025002849085700F039F834E0244850F877
:100BA000240050F8250040F42020214951F8241059
:100BB00041F825001F49085700F028F823E01C4899
:100BC00050F8240050F8250040F43020184951F81E
:100BD000241041F825001749085700F017F812E0D3
:100BE00010E0134850F8240050F8250040F440204D
:100BF0000F4951F8241041F825000E49085700F01C
:100C000005F800E000BF00BF00BF74E700F01F025E
:100C10000121914042094FF0E02303EB8202C2F828
:100C20000011704700800440041700002CE0FF1FF3
:100C3000F01600001817000080E100E070B5FFF723
:100C400040FC424800684FF47A72B0FBF2F1B1F117
:100C5000807F01D301201DE021F07F40401E4FF036
:100C6000E022506150170F22002807DA13071D0EEB
:100C7000374B00F00F04241F1D5503E013071C0E13
:100C8000344B1C5400BF00204FF0E022906107203D
:100C90001061002008B100BFFEE770BD2E4908605A
:100CA00000BF2D4909680029FBD1704730B50146C6
:100CB0002A4C6268254C2468294DB4FBF5F404FBEA
:100CC00001F3D018904205D900BF244C64688442D7
:100CD000FBD309E000BF214C64688442FBD800BF0D
:100CE0001E4C64688442FBD330BD10B504462046D8
:100CF000FFF7DCFF10BD1849086000BF16490968FE
:100D00000029FBD170471448006820B112480068E0
:100D1000401E11490860704712480068401C114984
:100D2000086008460068B0F1004F01D1002008605B
:100D30007047012080F3108800BF0A480168002036
:100D400080F3108800BF08467047000000E0FF1FD6
:100D500018ED00E000E400E00CE0FF1F001000E0F0
:100D600040420F0010E0FF1F10B5002807DA0A0705
:100D7000140E674A00F00F031B1FD45403E00A0748
:100D8000130E644A135410BD2DE9F04106460D467A
:100D900017461C46052E78D2DFE806F0031A3148C4
:100DA0005F00282000F0ABF839462820FFF7DCFF71
:100DB0004FF4702000EA044040F48070801C40EA48
:100DC000D410554941F82500282000F08CF85DE04A
:100DD000292000F094F839462920FFF7C5FF4FF489
:100DE000702000EA044040F48070801C40EAD41077
:100DF0004A4941F82500292000F075F846E02A20EC
:100E000000F07DF839462A20FFF7AEFF4FF470203E
:100E100000EA044040F48070801C40EAD41040494D
:100E200041F825002A2000F05EF82FE02B2000F08A
:100E300066F839462B20FFF797FF4FF4702000EA41
:100E4000044040F48070801C40EAD410354941F8D9
:100E500025002B2000F047F818E02C2000F04FF878
:100E600039462C20FFF780FF4FF4702000EA044041
:100E700040F48070801C40EAD4102B4941F82500D2
:100E80002C2000F030F801E0FFE700BF00BFBDE814
:100E9000F08110B51E2000F032F803211E20FFF76C
:100EA00063FF1E2000F01FF81F2000F028F8042127
:100EB0001F20FFF759FF1F2000F015F8202000F039
:100EC0001EF805212020FFF74FFF202000F00BF82F
:100ED000212000F014F806212120FFF745FF2120F2
:100EE00000F001F810BD00F01F02012191404209FD
:100EF0004FF0E02303EB8202C2F80011704700F0CC
:100F00001F0201219140094A430942F8231070470A
:100F100018ED00E000E400E00090044000A0044070
:100F200000B0044000C0044000D0044080E200E073
:100F30002DE9F04105461F46C94B1B684FEA530C8B
:100F40004FEA1C43B3FBF2F4002001E0431CD8B28B
:100F500034FA00F3FAD1B2F57A7F01D2431CD8B249
:100F60002CFA00F3B3FBF2F423465B1C7B4342F202
:100F70001078B3FBF8F615B1012D79D18DE0B94B9E
:100F8000DB6B43F08073DFF8DC82C8F83C30082963
:100F90007FD2DFE801F004132231404F5E6FB14B86
:100FA0009B6B43F40063DFF8BC82C8F838304FF421
:100FB0008063DFF8B482C8F804306CE0A94B9B6B07
:100FC00043F40073DFF89C82C8F838304FF4407364
:100FD000DFF89882C8F810305DE0A24B9B6B43F4B9
:100FE0000063DFF88082C8F838304FF48063DFF8A0
:100FF0007882C8F80C304EE09A4B9B6B43F4006348
:10100000DFF86082C8F838304FF48063DFF8588228
:10101000C8F810303FE0934B9B6B43F48053DFF8EC
:101020004482C8F838304FF48063DFF84482C8F84F
:10103000103030E08B4B9B6B43F48053DFF82482FD
:10104000C8F838304FF48063DFF82482C8F81430D1
:1010500021E0844B9B6B43F48053DFF80882C8F88F
:1010600038304FF48063DFF80882C8F8183012E097
:1010700040E00EE07B4B9B6B43F48053DFF8E48150
:10108000C8F838304FF48063DFF8E481C8F81C30CA
:1010900001E0BDE8F08100BF2DE0724BDB6B43F057
:1010A0000073DFF8C081C8F83C3011B101291ED1AE
:1010B0000EE06C4B9B6B43F40073DFF8A881C8F81B
:1010C00038304FF44073DFF8A481C8F830300FE0B7
:1010D000644B9B6B43F40073DFF88881C8F83830A9
:1010E0004FF44073DFF88481C8F8343000E0D0E773
:1010F00000BF00E000BF00BF15B1012D4CD125E0BD
:101100005C4B53F8313023F004085A4B43F83180DC
:101110004FF0280843F83180564B0C3B9C6000F0A0
:10112000070343F02803DFF84C81A8F10C08C8F846
:1011300000300023C8F84C30C8F84C304D4B03EB5E
:10114000C1035E600023C8F8043026E04A4B53F820
:10115000313023F00408484B43F831804FF0280821
:1011600043F83180444B0C3B9C6000F0070343F094
:101170002803DFF80481A8F10C08C8F80030002328
:10118000C8F84C30C8F84C303B4B03EBC1035E60F1
:101190000023C8F8043000E000BF00BF00BF78E7BC
:1011A00070B504460B4614B1012C1ED10EE0314D32
:1011B0000C3DA9680D466D1C554342F21076B5FBF7
:1011C000F6F02C4D05EBC30568600FE02A4D0C3D91
:1011D000A9680D466D1C554342F21076B5FBF6F03A
:1011E000254D05EBC305686000E000BF00BF70BD82
:1011F00070B503461A4D2D686C08250CB5FBF1F24D
:10120000002001E0451CE8B232FA00F5FAD124FAD8
:1012100000F5B5FBF1F213B1012B1ED10EE000F089
:10122000070545F02805134E0C3E35600025F56492
:101230003546AA600025F56475600FE000F00705EB
:1012400045F028050C4E0C3E35600025F56435460A
:10125000AA600025F564756000E000BF00BF70BDA6
:1012600004E0FF1F0080044000B0044000900440F0
:1012700000C004400C8003400C9003405F49C96BE0
:1012800041F400015D4AD1635D4909685D4A11601E
:10129000114609685C4AB1FBF2F15A4A1160416893
:1012A00012685143594A037802EB031211605749FF
:1012B000027801EB0211896841F001025349037879
:1012C00001EB03118A605249096821F00201504A7A
:1012D000116070473CB505460C468DF800500194EE
:1012E0006846FFF7CBFF3CBD70B50B464349C96B61
:1012F00041F40001414CE16372B1464C215601F0CA
:101300001F050124AC404D094FF0E02606EB850592
:10131000C5F8004100BF00BF52B13C4901EB0011CC
:10132000896841F00204394901EB00118C6009E041
:10133000364901EB0011896821F00204334901EBC1
:1013400000118C604AB9314901EB0011C96841F0C4
:1013500001042E4901EB0011CC6070BD2B4901EB5B
:101360000011896821F00102284901EB00118A600F
:10137000264901EB0011896841F00102234901EB84
:1013800000118A6070470146204800EB0110406858
:1013900070471A4AD26B42F40002184BDA6311B15B
:1013A0001D4A42F82010704710B50446174800EB5C
:1013B0000410C06840F00101144800EB0410C16043
:1013C000154850F8240018B1134951F824008047FB
:1013D00010BD10B50020FFF7E7FF10BD10B50120CC
:1013E000FFF7E2FF10BD10B50220FFF7DDFF10BDD3
:1013F00010B50320FFF7D8FF10BD000000800440A7
:1014000004E0FF1F14E0FF1F40420F000071034083
:10141000007003401D17000040E0FF1F10B50123BE
:10142000042251495148FFF723F9012305224E496F
:101430004E48FFF71DF901230C224B494B48FFF79B
:1014400017F901230D2248494848FFF711F90123F4
:101450000222454940314648FFF70AF90123032299
:10146000414980314348FFF703F9012306223E49F1
:10147000C0314148FFF7FCF8012300223F494048B2
:10148000FFF7F6F801231A463C493D48FFF7F0F80C
:10149000022135484030FFF753F910BDFFF7CEFB6E
:1014A000FFF7BCFF44F620610020FFF713FF40F276
:1014B000DE33322202210020FFF73AFD01221146DD
:1014C0001046FFF7BDFA8B23032201210846FFF7E0
:1014D0005BFC48E0062129484038FFF72BF94FF420
:1014E0009670FFF708FC062124484038FFF728F9DA
:1014F0004FF49670FFF7FFFB14E00DE02148022146
:1015000002680020FFF74CFE0420FFF7F4FB1D48A3
:101510000068401E1B4908601A480068B0F5A57FA6
:10152000ECDC03E0184800680128E6D000BF15E0B5
:101530000DE01448022102680020FFF731FE04206C
:10154000FFF7D9FB0F480068401C0E4908600D48A2
:10155000006840F2DE318842EBDB03E00A480068B5
:101560000228E5D000BFB5E700F00F40009004402E
:1015700000A0044000B0044000C0044000F10F404F
:1015800000D0044018E0FF1F28E0FF1F10B54FF007
:10159000E020006910F4803F01D0FFF7B4FB10BDDC
:1015A00010B50D212F48FFF7D1F82F4800682F49BB
:1015B00008600020FFF7E7FE2B4908602B48006811
:1015C0000968884207D02948006827490968401AF5
:1015D0002749086002E00020254908602448006887
:1015E000002804DA2248006840422149086003E0EC
:1015F0000120204908600BE01D4800684BF680314F
:10160000884205DD1A4800684BF668718842EFDBB6
:1016100000BF03E002201749086009E01448006891
:101620001549884204DD1248006814498842F1DBFC
:1016300000BF134800684FF0FF301249C1F8A00006
:1016400010BD114800684FF0FF301049C1F8A000EC
:1016500070470F4800684FF0FF300E49C1F8A000F6
:101660007047000000F00F401CE0FF1F20E0FF1F4C
:1016700024E0FF1F28E0FF1F00770100E87A010047
:10168000A0A0044000A00440A0C0044000C004404A
:10169000A0D0044000D00440064C074D06E0E068AE
:1016A00040F0010394E8070098471034AC42F6D3A9
:1016B000FEF7B2FE241700004417000002E008C83D
:1016C000121F08C1002AFAD170477047002001E0BC
:1016D00001C1121F002AFBD17047000000F00F402B
:1016E00040F00F4080F00F40C0F00F4000F10F407D
:1016F0000090044000A0044000B0044000C004403A
:1017000000D00440000200000004000000080000B7
:10171000001000000020000028292A2B2C1E1F206A
:10172000210000004417000000E0FF1F2C00000013
:10173000BC160000701700002CE0FF1F24040000FE
:10174000CC160000006CDC02006CDC0200366E017E
:10175000000000000000000000000000DE030000A8
:101760000000000000000000000000000000000079
:0400000500000411E2
:00000001FF
